{
  "contractName": "Donut",
  "abi": [
    {
      "inputs": [
        {
          "internalType": "address",
          "name": "",
          "type": "address"
        }
      ],
      "name": "balances",
      "outputs": [
        {
          "internalType": "uint256",
          "name": "",
          "type": "uint256"
        }
      ],
      "stateMutability": "view",
      "type": "function"
    },
    {
      "inputs": [],
      "name": "price",
      "outputs": [
        {
          "internalType": "uint256",
          "name": "",
          "type": "uint256"
        }
      ],
      "stateMutability": "view",
      "type": "function"
    },
    {
      "inputs": [],
      "name": "price2",
      "outputs": [
        {
          "internalType": "uint256",
          "name": "",
          "type": "uint256"
        }
      ],
      "stateMutability": "view",
      "type": "function"
    },
    {
      "inputs": [],
      "name": "price3",
      "outputs": [
        {
          "internalType": "uint256",
          "name": "",
          "type": "uint256"
        }
      ],
      "stateMutability": "view",
      "type": "function"
    },
    {
      "inputs": [],
      "name": "price4",
      "outputs": [
        {
          "internalType": "uint256",
          "name": "",
          "type": "uint256"
        }
      ],
      "stateMutability": "view",
      "type": "function"
    },
    {
      "inputs": [],
      "name": "price5",
      "outputs": [
        {
          "internalType": "uint256",
          "name": "",
          "type": "uint256"
        }
      ],
      "stateMutability": "view",
      "type": "function"
    },
    {
      "inputs": [],
      "name": "price6",
      "outputs": [
        {
          "internalType": "uint256",
          "name": "",
          "type": "uint256"
        }
      ],
      "stateMutability": "view",
      "type": "function"
    },
    {
      "inputs": [],
      "name": "rent",
      "outputs": [],
      "stateMutability": "payable",
      "type": "function"
    },
    {
      "inputs": [],
      "name": "rent2",
      "outputs": [],
      "stateMutability": "payable",
      "type": "function"
    },
    {
      "inputs": [],
      "name": "rent3",
      "outputs": [],
      "stateMutability": "payable",
      "type": "function"
    },
    {
      "inputs": [],
      "name": "rent4",
      "outputs": [],
      "stateMutability": "payable",
      "type": "function"
    },
    {
      "inputs": [],
      "name": "rent5",
      "outputs": [],
      "stateMutability": "payable",
      "type": "function"
    },
    {
      "inputs": [],
      "name": "rent6",
      "outputs": [],
      "stateMutability": "payable",
      "type": "function"
    }
  ],
  "bytecode": "0x6080604052670de0b6b3a76400006001556729a2241af62c00006002556753444835ec580000600355677ce66c50e284000060045567a688906bd8b000006005556801158e460913d0000060065534801561005957600080fd5b50610800806100696000396000f3fe6080604052600436106100c25760003560e01c8063641e90de1161007f578063865b554811610059578063865b5548146101b75780639db4f4ff146101e2578063a035b1fe146101ec578063d778c91114610217576100c2565b8063641e90de1461017857806378fbbc15146101a357806382996d9f146101ad576100c2565b806327378684146100c757806327a3181d146100f257806327e235e31461011d578063400422ea1461015a5780635ec6bac5146101645780635f316a4f1461016e575b600080fd5b3480156100d357600080fd5b506100dc610242565b6040516100e9919061063f565b60405180910390f35b3480156100fe57600080fd5b50610107610248565b604051610114919061063f565b60405180910390f35b34801561012957600080fd5b50610144600480360381019061013f91906106bd565b61024e565b604051610151919061063f565b60405180910390f35b610162610266565b005b61016c610302565b005b61017661039e565b005b34801561018457600080fd5b5061018d61043a565b60405161019a919061063f565b60405180910390f35b6101ab610440565b005b6101b56104dc565b005b3480156101c357600080fd5b506101cc610578565b6040516101d9919061063f565b60405180910390f35b6101ea61057e565b005b3480156101f857600080fd5b5061020161061a565b60405161020e919061063f565b60405180910390f35b34801561022357600080fd5b5061022c610620565b604051610239919061063f565b60405180910390f35b60045481565b60025481565b60006020528060005260406000206000915090505481565b60035434146102aa576040517f08c379a00000000000000000000000000000000000000000000000000000000081526004016102a190610747565b60405180910390fd5b60066000803373ffffffffffffffffffffffffffffffffffffffff1673ffffffffffffffffffffffffffffffffffffffff16815260200190815260200160002060008282546102f99190610796565b92505081905550565b6006543414610346576040517f08c379a000000000000000000000000000000000000000000000000000000000815260040161033d90610747565b60405180910390fd5b60146000803373ffffffffffffffffffffffffffffffffffffffff1673ffffffffffffffffffffffffffffffffffffffff16815260200190815260200160002060008282546103959190610796565b92505081905550565b60025434146103e2576040517f08c379a00000000000000000000000000000000000000000000000000000000081526004016103d990610747565b60405180910390fd5b60036000803373ffffffffffffffffffffffffffffffffffffffff1673ffffffffffffffffffffffffffffffffffffffff16815260200190815260200160002060008282546104319190610796565b92505081905550565b60055481565b6005543414610484576040517f08c379a000000000000000000000000000000000000000000000000000000000815260040161047b90610747565b60405180910390fd5b600c6000803373ffffffffffffffffffffffffffffffffffffffff1673ffffffffffffffffffffffffffffffffffffffff16815260200190815260200160002060008282546104d39190610796565b92505081905550565b6001543414610520576040517f08c379a000000000000000000000000000000000000000000000000000000000815260040161051790610747565b60405180910390fd5b60016000803373ffffffffffffffffffffffffffffffffffffffff1673ffffffffffffffffffffffffffffffffffffffff168152602001908152602001600020600082825461056f9190610796565b92505081905550565b60065481565b60045434146105c2576040517f08c379a00000000000000000000000000000000000000000000000000000000081526004016105b990610747565b60405180910390fd5b60096000803373ffffffffffffffffffffffffffffffffffffffff1673ffffffffffffffffffffffffffffffffffffffff16815260200190815260200160002060008282546106119190610796565b92505081905550565b60015481565b60035481565b6000819050919050565b61063981610626565b82525050565b60006020820190506106546000830184610630565b92915050565b600080fd5b600073ffffffffffffffffffffffffffffffffffffffff82169050919050565b600061068a8261065f565b9050919050565b61069a8161067f565b81146106a557600080fd5b50565b6000813590506106b781610691565b92915050565b6000602082840312156106d3576106d261065a565b5b60006106e1848285016106a8565b91505092915050565b600082825260208201905092915050565b7f496e636f7272656374207061796d656e7420616d6f756e742e00000000000000600082015250565b60006107316019836106ea565b915061073c826106fb565b602082019050919050565b6000602082019050818103600083015261076081610724565b9050919050565b7f4e487b7100000000000000000000000000000000000000000000000000000000600052601160045260246000fd5b60006107a182610626565b91506107ac83610626565b92508282019050808211156107c4576107c3610767565b5b9291505056fea2646970667358221220c287fa21c9ab96bdfacf46562e6e3db9446a98305341dfc0bd9b49b61995933264736f6c63430008130033",
  "immutableReferences": {},
  "source": "// SPDX-License-Identifier: MIT\npragma solidity >=0.4.22 <0.9.0;\n\ncontract Donut {\n mapping(address => uint) public balances;\n    uint public price = 1 ether;\n    uint public price2 = 3 ether;\n    uint public price3 = 6 ether;\n    uint public price4 = 9 ether;\n    uint public price5 = 12 ether;\n    uint public price6 = 20 ether;\n\n    function rent() payable public {\n        require(msg.value == price, \"Incorrect payment amount.\");\n        balances[msg.sender] += 1;\n    }\n    function rent2() payable public {\n        require(msg.value == price2, \"Incorrect payment amount.\");\n        balances[msg.sender] += 3;\n    }\n    function rent3() payable public {\n        require(msg.value == price3, \"Incorrect payment amount.\");\n        balances[msg.sender] += 6;\n    }\n    function rent4() payable public {\n        require(msg.value == price4, \"Incorrect payment amount.\");\n        balances[msg.sender] += 9;\n    }\n    function rent5() payable public {\n        require(msg.value == price5, \"Incorrect payment amount.\");\n        balances[msg.sender] += 12;\n    }\n    function rent6() payable public {\n        require(msg.value == price6, \"Incorrect payment amount.\");\n        balances[msg.sender] += 20;\n    }\n    \n}\n",
  "sourcePath": "D:\\blockchain\\motorcycle_rental\\contracts\\Donut.sol",
  "compiler": {
    "name": "solc",
    "version": "0.8.19+commit.7dd6d404.Emscripten.clang"
  },
  "schemaVersion": "3.4.13",
  "updatedAt": "2023-05-03T12:13:35.965Z",
  "devdoc": {
    "kind": "dev",
    "methods": {},
    "version": 1
  },
  "userdoc": {
    "kind": "user",
    "methods": {},
    "version": 1
  }
}